:1000000000308A0019280000213084008313000882
:10001000031918280130F800F701F70B0D28F80B29
:100020000C284A30F700F70B13281628800B0A28F3
:10003000080003081F39830083161F149F141F151F
:100040009F1107309C008313003086008312061432
:10005000831686008312861083168600831206118B
:100060008316860083128611831686008312061279
:100070008316860083128612831686008312061367
:100080008316860083128613C830A1000420003036
:100090008316860083120610831686008312861448
:1000A000831686008312061183168600831286113A
:1000B0008316860083120612831686008312861228
:1000C0008316860083120613831686008312861316
:1000D000C830A10004200030831686008312061069
:1000E00083168600831286108316860083120615F7
:1000F00083168600831286118316860083120612E9
:1001000083168600831286128316860083120613D6
:100110008316860083128613C830A10004200030A5
:1001200083168600831206108316860083128610BB
:1001300083168600831206118316860083128615A5
:100140008316860083120612831686008312861297
:100150008316860083120613831686008312861385
:10016000C830A100042000308316860083120610D8
:10017000831686008312861083168600831206116A
:100180008316860083128611831686008312061654
:100190008316860083128612831686008312061346
:1001A0008316860083128613C830A1000420003015
:1001B000831686008312061083168600831286102B
:1001C0008316860083120611831686008312861119
:1001D0008316860083120612831686008312861603
:1001E00083168600831206138316860083128613F5
:1001F000C830A10004200030831686008312061048
:1002000083168600831286108316860083120611D9
:1002100083168600831286118316860083120612C7
:1002200083168600831286128316860083120617B1
:100230008316860083128613C830A1000420003084
:10024000831686008312061083168600831286109A
:100250008316860083120611831686008312861188
:100260008316860083120612831686008312861276
:100270008316860083120613831686008312861760
:0C028000C830A10004208316242863006D
:02400E00313F40
:00000001FF
;PIC16F877A
;CRC=667D  CREATED="02-abr.-24 11:39"
